:1000000078307A3079307B3030900280FB1200807B
:0F0010009002001200761200C130910830923039
:0E001F0030932780F512008090020F120076B9
:0E002D00B839080AEA7830E802003BEA08E831
:0E003B00B939070BEB7930E980D4EBE980D0BE
:0F0049000202CB02026B12008090025F1200765F
:10005800BA39080AEA7830EB020065EAE8B93908E3
:100068000BEB7930E9020019EB09E9020019E49376
:10007800600511C1A380F722748011B0743811B0E3
:10008800740E11B0740111B0740611B0741411B06B
:0E0098002274C211B02274CB1200B02274C1C7
:1000A6001200B02274CA1200B022F5B0C2A0C2A1DA
:0F00B600D2A21200D2C2A21200D222F5B0D2A062
:0F00C500C2A1D2A21200D2C2A21200D2227D3258
:0700D4007EC8DEFEDDFA220A
:10020000566F74696E67204D616368696E6500762C
:100210006F74656420666F7220410057696E6E6569
:10022000722D3E5465616D20410057696E6E657296
:100230002D3E5465616D20420073636F72657320BB
:1002400054696500546F74616C20566F7465730057
:100250005465616D204120205465616D2042005637
:0E0260006F74656420466F72204200120080A9
:10026E009002501200761200A4EA1200C1120099F8
:0F027E00E81200C11200AAEB1200C112009EE9A3
:0F028D001200C11200D21200D21200809002445F
:10029C00120076B93005BB300F8011B839067830B2
:1002AC00190A80EF081980EB0A1B80EA120099E802
:1002BC001200C11200A4EA1200C111D20202C8EA53
:1002CC008BF0B5F010E889F0B5F00302030A95F055
:0F02DC00401B0202E895F040140202E812008075
:0E02EB0090021B1200761200C11200D2014CCC
:0F02F90012008090022A1200761200C11200D269
:0E030800014C1200809002391200761200C1E2
:050316001200D2014CB1
:00000001FF
